{
  "contractName": "MARTZKEth",
  "abi": [
    {
      "inputs": [
        {
          "internalType": "address",
          "name": "_attributeVerifier",
          "type": "address"
        },
        {
          "internalType": "address",
          "name": "_policyVerifier",
          "type": "address"
        },
        {
          "internalType": "address",
          "name": "_processVerifier",
          "type": "address"
        }
      ],
      "stateMutability": "nonpayable",
      "type": "constructor"
    },
    {
      "anonymous": false,
      "inputs": [
        {
          "indexed": true,
          "internalType": "address",
          "name": "prover",
          "type": "address"
        },
        {
          "indexed": true,
          "internalType": "uint256",
          "name": "authorityId",
          "type": "uint256"
        },
        {
          "indexed": true,
          "internalType": "uint256",
          "name": "attributeType",
          "type": "uint256"
        },
        {
          "indexed": false,
          "internalType": "bytes32",
          "name": "commitment",
          "type": "bytes32"
        }
      ],
      "name": "AttributeProofVerified",
      "type": "event"
    },
    {
      "anonymous": false,
      "inputs": [
        {
          "indexed": true,
          "internalType": "address",
          "name": "prover",
          "type": "address"
        },
        {
          "indexed": true,
          "internalType": "uint256",
          "name": "policyId",
          "type": "uint256"
        }
      ],
      "name": "PolicyProofVerified",
      "type": "event"
    },
    {
      "anonymous": false,
      "inputs": [
        {
          "indexed": true,
          "internalType": "address",
          "name": "prover",
          "type": "address"
        },
        {
          "indexed": true,
          "internalType": "uint256",
          "name": "processId",
          "type": "uint256"
        },
        {
          "indexed": false,
          "internalType": "uint256",
          "name": "currentStep",
          "type": "uint256"
        },
        {
          "indexed": false,
          "internalType": "uint256",
          "name": "previousStep",
          "type": "uint256"
        }
      ],
      "name": "ProcessProofVerified",
      "type": "event"
    },
    {
      "inputs": [
        {
          "internalType": "string",
          "name": "",
          "type": "string"
        },
        {
          "internalType": "uint256",
          "name": "",
          "type": "uint256"
        },
        {
          "internalType": "uint256",
          "name": "",
          "type": "uint256"
        }
      ],
      "name": "attributeCommitments",
      "outputs": [
        {
          "internalType": "bytes32",
          "name": "",
          "type": "bytes32"
        }
      ],
      "stateMutability": "view",
      "type": "function",
      "constant": true
    },
    {
      "inputs": [],
      "name": "attributeVerifier",
      "outputs": [
        {
          "internalType": "contract IVerifier",
          "name": "",
          "type": "address"
        }
      ],
      "stateMutability": "view",
      "type": "function",
      "constant": true
    },
    {
      "inputs": [],
      "name": "policyVerifier",
      "outputs": [
        {
          "internalType": "contract IVerifier",
          "name": "",
          "type": "address"
        }
      ],
      "stateMutability": "view",
      "type": "function",
      "constant": true
    },
    {
      "inputs": [],
      "name": "processVerifier",
      "outputs": [
        {
          "internalType": "contract IVerifier",
          "name": "",
          "type": "address"
        }
      ],
      "stateMutability": "view",
      "type": "function",
      "constant": true
    },
    {
      "inputs": [
        {
          "internalType": "uint64",
          "name": "_instanceID",
          "type": "uint64"
        },
        {
          "internalType": "bytes32",
          "name": "_hash1",
          "type": "bytes32"
        },
        {
          "internalType": "bytes32",
          "name": "_hash2",
          "type": "bytes32"
        }
      ],
      "name": "setAuthoritiesNames",
      "outputs": [],
      "stateMutability": "nonpayable",
      "type": "function"
    },
    {
      "inputs": [
        {
          "internalType": "uint64",
          "name": "_instanceID",
          "type": "uint64"
        },
        {
          "internalType": "bytes32",
          "name": "_hash1",
          "type": "bytes32"
        },
        {
          "internalType": "bytes32",
          "name": "_hash2",
          "type": "bytes32"
        },
        {
          "internalType": "string",
          "name": "_gid",
          "type": "string"
        },
        {
          "internalType": "uint256",
          "name": "_authId",
          "type": "uint256"
        },
        {
          "internalType": "uint256",
          "name": "_attrType",
          "type": "uint256"
        },
        {
          "internalType": "bytes32",
          "name": "_commitment",
          "type": "bytes32"
        }
      ],
      "name": "setUserAttributes",
      "outputs": [],
      "stateMutability": "nonpayable",
      "type": "function"
    },
    {
      "inputs": [
        {
          "internalType": "string",
          "name": "_gid",
          "type": "string"
        },
        {
          "internalType": "uint256",
          "name": "_authId",
          "type": "uint256"
        },
        {
          "internalType": "uint256",
          "name": "_attrType",
          "type": "uint256"
        }
      ],
      "name": "getAttributeCommitment",
      "outputs": [
        {
          "internalType": "bytes32",
          "name": "",
          "type": "bytes32"
        }
      ],
      "stateMutability": "view",
      "type": "function",
      "constant": true
    },
    {
      "inputs": [
        {
          "internalType": "uint64",
          "name": "_instanceID",
          "type": "uint64"
        }
      ],
      "name": "getUserAttributes",
      "outputs": [
        {
          "internalType": "bytes",
          "name": "",
          "type": "bytes"
        }
      ],
      "stateMutability": "view",
      "type": "function",
      "constant": true
    },
    {
      "inputs": [
        {
          "internalType": "uint256[2]",
          "name": "a",
          "type": "uint256[2]"
        },
        {
          "internalType": "uint256[2][2]",
          "name": "b",
          "type": "uint256[2][2]"
        },
        {
          "internalType": "uint256[2]",
          "name": "c",
          "type": "uint256[2]"
        },
        {
          "internalType": "uint256[4]",
          "name": "input",
          "type": "uint256[4]"
        }
      ],
      "name": "verifyAttributeProof",
      "outputs": [
        {
          "internalType": "bool",
          "name": "",
          "type": "bool"
        }
      ],
      "stateMutability": "nonpayable",
      "type": "function"
    },
    {
      "inputs": [
        {
          "internalType": "uint256[2]",
          "name": "a",
          "type": "uint256[2]"
        },
        {
          "internalType": "uint256[2][2]",
          "name": "b",
          "type": "uint256[2][2]"
        },
        {
          "internalType": "uint256[2]",
          "name": "c",
          "type": "uint256[2]"
        },
        {
          "internalType": "uint256[]",
          "name": "input",
          "type": "uint256[]"
        }
      ],
      "name": "verifyPolicyProof",
      "outputs": [
        {
          "internalType": "bool",
          "name": "",
          "type": "bool"
        }
      ],
      "stateMutability": "nonpayable",
      "type": "function"
    },
    {
      "inputs": [
        {
          "internalType": "uint256[2]",
          "name": "a",
          "type": "uint256[2]"
        },
        {
          "internalType": "uint256[2][2]",
          "name": "b",
          "type": "uint256[2][2]"
        },
        {
          "internalType": "uint256[2]",
          "name": "c",
          "type": "uint256[2]"
        },
        {
          "internalType": "uint256[]",
          "name": "input",
          "type": "uint256[]"
        }
      ],
      "name": "verifyProcessProof",
      "outputs": [
        {
          "internalType": "bool",
          "name": "",
          "type": "bool"
        }
      ],
      "stateMutability": "nonpayable",
      "type": "function"
    }
  ],
  "bytecode": "0x60806040523480156200001157600080fd5b5060405162001bfe38038062001bfe83398181016040528101906200003791906200016d565b82600360006101000a81548173ffffffffffffffffffffffffffffffffffffffff021916908373ffffffffffffffffffffffffffffffffffffffff16021790555081600460006101000a81548173ffffffffffffffffffffffffffffffffffffffff021916908373ffffffffffffffffffffffffffffffffffffffff16021790555080600560006101000a81548173ffffffffffffffffffffffffffffffffffffffff021916908373ffffffffffffffffffffffffffffffffffffffff160217905550505050620001c9565b600080fd5b600073ffffffffffffffffffffffffffffffffffffffff82169050919050565b6000620001358262000108565b9050919050565b620001478162000128565b81146200015357600080fd5b50565b60008151905062000167816200013c565b92915050565b60008060006060848603121562000189576200018862000103565b5b6000620001998682870162000156565b9350506020620001ac8682870162000156565b9250506040620001bf8682870162000156565b9150509250925092565b611a2580620001d96000396000f3fe608060405234801561001057600080fd5b50600436106100a95760003560e01c80635523a952116100715780635523a95214610164578063b5a8dd2814610194578063c12f61a1146101c4578063c54236bc146101f4578063e4d16fbb14610212578063ffff60f914610230576100a9565b806312c08042146100ae578063264a315d146100ca57806335aa4e68146100e657806337ce0814146101165780633e567c4714610134575b600080fd5b6100c860048036038101906100c39190610b6a565b610260565b005b6100e460048036038101906100df9190610d39565b61033b565b005b61010060048036038101906100fb9190611021565b6103e7565b60405161010d91906110c1565b60405180910390f35b61011e61057d565b60405161012b919061115b565b60405180910390f35b61014e60048036038101906101499190611227565b6105a3565b60405161015b91906110c1565b60405180910390f35b61017e60048036038101906101799190611290565b6107d8565b60405161018b919061130e565b60405180910390f35b6101ae60048036038101906101a99190611290565b610820565b6040516101bb919061130e565b60405180910390f35b6101de60048036038101906101d99190611021565b61086c565b6040516101eb91906110c1565b60405180910390f35b6101fc6109cb565b604051610209919061115b565b60405180910390f35b61021a6109f1565b604051610227919061115b565b60405180910390f35b61024a60048036038101906102459190611329565b610a17565b60405161025791906113d5565b60405180910390f35b816000808567ffffffffffffffff1667ffffffffffffffff16815260200190815260200160002060003373ffffffffffffffffffffffffffffffffffffffff1673ffffffffffffffffffffffffffffffffffffffff16815260200190815260200160002060000181905550806000808567ffffffffffffffff1667ffffffffffffffff16815260200190815260200160002060003373ffffffffffffffffffffffffffffffffffffffff1673ffffffffffffffffffffffffffffffffffffffff16815260200190815260200160002060010181905550505050565b85600160008967ffffffffffffffff1667ffffffffffffffff1681526020019081526020016000206000018190555084600160008967ffffffffffffffff1667ffffffffffffffff16815260200190815260200160002060010181905550806002856040516103aa919061143e565b9081526020016040518091039020600085815260200190815260200160002060008481526020019081526020016000208190555050505050505050565b600080600560009054906101000a900473ffffffffffffffffffffffffffffffffffffffff1673ffffffffffffffffffffffffffffffffffffffff1663c32e370e878787876040518563ffffffff1660e01b815260040161044b9493929190611695565b602060405180830381865afa158015610468573d6000803e3d6000fd5b505050506040513d601f19601f8201168201806040525081019061048c919061170f565b9050806104ce576040517f08c379a00000000000000000000000000000000000000000000000000000000081526004016104c5906117bf565b60405180910390fd5b826001815181106104e2576104e16117df565b5b60200260200101513373ffffffffffffffffffffffffffffffffffffffff167f9d4a0c344bfbe5f75019908e78e5642989e6766898e07533bcb281d607e9a48785600281518110610536576105356117df565b5b602002602001015186600381518110610552576105516117df565b5b602002602001015160405161056892919061181d565b60405180910390a36001915050949350505050565b600360009054906101000a900473ffffffffffffffffffffffffffffffffffffffff1681565b600080600467ffffffffffffffff8111156105c1576105c0610bd8565b5b6040519080825280602002602001820160405280156105ef5781602001602082028036833780820191505090505b50905060005b600481101561064857838160048110610611576106106117df565b5b6020020151828281518110610629576106286117df565b5b602002602001018181525050808061064090611875565b9150506105f5565b506000600360009054906101000a900473ffffffffffffffffffffffffffffffffffffffff1673ffffffffffffffffffffffffffffffffffffffff1663c32e370e888888866040518563ffffffff1660e01b81526004016106ac9493929190611695565b602060405180830381865afa1580156106c9573d6000803e3d6000fd5b505050506040513d601f19601f820116820180604052508101906106ed919061170f565b90508061072f576040517f08c379a00000000000000000000000000000000000000000000000000000000081526004016107269061192f565b60405180910390fd5b83600360048110610743576107426117df565b5b60200201518460026004811061075c5761075b6117df565b5b60200201513373ffffffffffffffffffffffffffffffffffffffff167f1321acf4ee7983154c19216e5abf6f0eaef80338939a23802fb9e2c5d0dc6ed3876000600481106107ad576107ac6117df565b5b602002015160001b6040516107c2919061130e565b60405180910390a4600192505050949350505050565b60028380516020810182018051848252602083016020850120818352809550505050505060205281600052604060002060205280600052604060002060009250925050505481565b6000600284604051610832919061143e565b9081526020016040518091039020600084815260200190815260200160002060008381526020019081526020016000205490509392505050565b600080600460009054906101000a900473ffffffffffffffffffffffffffffffffffffffff1673ffffffffffffffffffffffffffffffffffffffff1663c32e370e878787876040518563ffffffff1660e01b81526004016108d09493929190611695565b602060405180830381865afa1580156108ed573d6000803e3d6000fd5b505050506040513d601f19601f82011682018060405250810190610911919061170f565b905080610953576040517f08c379a000000000000000000000000000000000000000000000000000000000815260040161094a9061199b565b60405180910390fd5b826001845161096291906119bb565b81518110610973576109726117df565b5b60200260200101513373ffffffffffffffffffffffffffffffffffffffff167f8b7f6752274dae23c69b2972487bd65256eaba830c00e38c4cb90759a38c2ebe60405160405180910390a36001915050949350505050565b600560009054906101000a900473ffffffffffffffffffffffffffffffffffffffff1681565b600460009054906101000a900473ffffffffffffffffffffffffffffffffffffffff1681565b60606000600160008467ffffffffffffffff1667ffffffffffffffff1681526020019081526020016000206000015490506000600160008567ffffffffffffffff1667ffffffffffffffff1681526020019081526020016000206001015490506000604067ffffffffffffffff811115610a9457610a93610bd8565b5b6040519080825280601f01601f191660200182016040528015610ac65781602001600182028036833780820191505090505b509050826020820152816040820152809350505050919050565b6000604051905090565b600080fd5b600080fd5b600067ffffffffffffffff82169050919050565b610b1181610af4565b8114610b1c57600080fd5b50565b600081359050610b2e81610b08565b92915050565b6000819050919050565b610b4781610b34565b8114610b5257600080fd5b50565b600081359050610b6481610b3e565b92915050565b600080600060608486031215610b8357610b82610aea565b5b6000610b9186828701610b1f565b9350506020610ba286828701610b55565b9250506040610bb386828701610b55565b9150509250925092565b600080fd5b600080fd5b6000601f19601f8301169050919050565b7f4e487b7100000000000000000000000000000000000000000000000000000000600052604160045260246000fd5b610c1082610bc7565b810181811067ffffffffffffffff82111715610c2f57610c2e610bd8565b5b80604052505050565b6000610c42610ae0565b9050610c4e8282610c07565b919050565b600067ffffffffffffffff821115610c6e57610c6d610bd8565b5b610c7782610bc7565b9050602081019050919050565b82818337600083830152505050565b6000610ca6610ca184610c53565b610c38565b905082815260208101848484011115610cc257610cc1610bc2565b5b610ccd848285610c84565b509392505050565b600082601f830112610cea57610ce9610bbd565b5b8135610cfa848260208601610c93565b91505092915050565b6000819050919050565b610d1681610d03565b8114610d2157600080fd5b50565b600081359050610d3381610d0d565b92915050565b600080600080600080600060e0888a031215610d5857610d57610aea565b5b6000610d668a828b01610b1f565b9750506020610d778a828b01610b55565b9650506040610d888a828b01610b55565b955050606088013567ffffffffffffffff811115610da957610da8610aef565b5b610db58a828b01610cd5565b9450506080610dc68a828b01610d24565b93505060a0610dd78a828b01610d24565b92505060c0610de88a828b01610b55565b91505092959891949750929550565b600067ffffffffffffffff821115610e1257610e11610bd8565b5b602082029050919050565b600080fd5b6000610e35610e3084610df7565b610c38565b90508060208402830185811115610e4f57610e4e610e1d565b5b835b81811015610e785780610e648882610d24565b845260208401935050602081019050610e51565b5050509392505050565b600082601f830112610e9757610e96610bbd565b5b6002610ea4848285610e22565b91505092915050565b600067ffffffffffffffff821115610ec857610ec7610bd8565b5b602082029050919050565b6000610ee6610ee184610ead565b610c38565b90508060408402830185811115610f0057610eff610e1d565b5b835b81811015610f295780610f158882610e82565b845260208401935050604081019050610f02565b5050509392505050565b600082601f830112610f4857610f47610bbd565b5b6002610f55848285610ed3565b91505092915050565b600067ffffffffffffffff821115610f7957610f78610bd8565b5b602082029050602081019050919050565b6000610f9d610f9884610f5e565b610c38565b90508083825260208201905060208402830185811115610fc057610fbf610e1d565b5b835b81811015610fe95780610fd58882610d24565b845260208401935050602081019050610fc2565b5050509392505050565b600082601f83011261100857611007610bbd565b5b8135611018848260208601610f8a565b91505092915050565b600080600080610120858703121561103c5761103b610aea565b5b600061104a87828801610e82565b945050604061105b87828801610f33565b93505060c061106c87828801610e82565b92505061010085013567ffffffffffffffff81111561108e5761108d610aef565b5b61109a87828801610ff3565b91505092959194509250565b60008115159050919050565b6110bb816110a6565b82525050565b60006020820190506110d660008301846110b2565b92915050565b600073ffffffffffffffffffffffffffffffffffffffff82169050919050565b6000819050919050565b600061112161111c611117846110dc565b6110fc565b6110dc565b9050919050565b600061113382611106565b9050919050565b600061114582611128565b9050919050565b6111558161113a565b82525050565b6000602082019050611170600083018461114c565b92915050565b600067ffffffffffffffff82111561119157611190610bd8565b5b602082029050919050565b60006111af6111aa84611176565b610c38565b905080602084028301858111156111c9576111c8610e1d565b5b835b818110156111f257806111de8882610d24565b8452602084019350506020810190506111cb565b5050509392505050565b600082601f83011261121157611210610bbd565b5b600461121e84828561119c565b91505092915050565b600080600080610180858703121561124257611241610aea565b5b600061125087828801610e82565b945050604061126187828801610f33565b93505060c061127287828801610e82565b925050610100611284878288016111fc565b91505092959194509250565b6000806000606084860312156112a9576112a8610aea565b5b600084013567ffffffffffffffff8111156112c7576112c6610aef565b5b6112d386828701610cd5565b93505060206112e486828701610d24565b92505060406112f586828701610d24565b9150509250925092565b61130881610b34565b82525050565b600060208201905061132360008301846112ff565b92915050565b60006020828403121561133f5761133e610aea565b5b600061134d84828501610b1f565b91505092915050565b600081519050919050565b600082825260208201905092915050565b60005b83811015611390578082015181840152602081019050611375565b60008484015250505050565b60006113a782611356565b6113b18185611361565b93506113c1818560208601611372565b6113ca81610bc7565b840191505092915050565b600060208201905081810360008301526113ef818461139c565b905092915050565b600081519050919050565b600081905092915050565b6000611418826113f7565b6114228185611402565b9350611432818560208601611372565b80840191505092915050565b600061144a828461140d565b915081905092915050565b600060029050919050565b600081905092915050565b6000819050919050565b61147e81610d03565b82525050565b60006114908383611475565b60208301905092915050565b6000602082019050919050565b6114b281611455565b6114bc8184611460565b92506114c78261146b565b8060005b838110156114f85781516114df8782611484565b96506114ea8361149c565b9250506001810190506114cb565b505050505050565b600060029050919050565b600081905092915050565b6000819050919050565b600081905092915050565b61153481611455565b61153e8184611520565b92506115498261146b565b8060005b8381101561157a5781516115618782611484565b965061156c8361149c565b92505060018101905061154d565b505050505050565b600061158e838361152b565b60408301905092915050565b6000602082019050919050565b6115b081611500565b6115ba818461150b565b92506115c582611516565b8060005b838110156115f65781516115dd8782611582565b96506115e88361159a565b9250506001810190506115c9565b505050505050565b600081519050919050565b600082825260208201905092915050565b6000819050602082019050919050565b6000602082019050919050565b6000611642826115fe565b61164c8185611609565b93506116578361161a565b8060005b8381101561168857815161166f8882611484565b975061167a8361162a565b92505060018101905061165b565b5085935050505092915050565b6000610120820190506116ab60008301876114a9565b6116b860408301866115a7565b6116c560c08301856114a9565b8181036101008301526116d88184611637565b905095945050505050565b6116ec816110a6565b81146116f757600080fd5b50565b600081519050611709816116e3565b92915050565b60006020828403121561172557611724610aea565b5b6000611733848285016116fa565b91505092915050565b600082825260208201905092915050565b7f50726f636573732070726f6f6620766572696669636174696f6e206661696c6560008201527f6400000000000000000000000000000000000000000000000000000000000000602082015250565b60006117a960218361173c565b91506117b48261174d565b604082019050919050565b600060208201905081810360008301526117d88161179c565b9050919050565b7f4e487b7100000000000000000000000000000000000000000000000000000000600052603260045260246000fd5b61181781610d03565b82525050565b6000604082019050611832600083018561180e565b61183f602083018461180e565b9392505050565b7f4e487b7100000000000000000000000000000000000000000000000000000000600052601160045260246000fd5b600061188082610d03565b91507fffffffffffffffffffffffffffffffffffffffffffffffffffffffffffffffff82036118b2576118b1611846565b5b600182019050919050565b7f4174747269627574652070726f6f6620766572696669636174696f6e2066616960008201527f6c65640000000000000000000000000000000000000000000000000000000000602082015250565b600061191960238361173c565b9150611924826118bd565b604082019050919050565b600060208201905081810360008301526119488161190c565b9050919050565b7f506f6c6963792070726f6f6620766572696669636174696f6e206661696c6564600082015250565b600061198560208361173c565b91506119908261194f565b602082019050919050565b600060208201905081810360008301526119b481611978565b9050919050565b60006119c682610d03565b91506119d183610d03565b92508282039050818111156119e9576119e8611846565b5b9291505056fea2646970667358221220ad9784976d0596b831562f52155230c554a53ae4289b928a051a869febfa56c864736f6c63430008110033",
  "immutableReferences": {},
  "source": "// SPDX-License-Identifier: CC-BY-SA-4.0\n// File name: MARTZKEth.sol\npragma solidity >= 0.5.0 < 0.9.0;\n\nimport \"./interfaces/IVerifier.sol\";\n\ncontract MARTZKEth {\n    // Original MARTSIAEth structs and mappings\n    struct authoritiesNames {\n        bytes32 hashPart1;\n        bytes32 hashPart2;\n    }\n    mapping (uint64 => mapping (address => authoritiesNames)) authoritiesName;\n  \n  struct userAttributes {\n    bytes32 hashPart1;\n    bytes32 hashPart2;\n  }\n  mapping (uint64 => userAttributes) allUsers;\n\n    // ... (keep all other original structs and mappings)\n    // New zkSNARK-related mappings\n    mapping(string => mapping(uint => mapping(uint => bytes32))) public attributeCommitments;\n    \n    // Verifier contract references\n    IVerifier public attributeVerifier;\n    IVerifier public policyVerifier;\n    IVerifier public processVerifier;\n    \n    // Events for verification results\n    event AttributeProofVerified(address indexed prover, uint indexed authorityId, uint indexed attributeType, bytes32 commitment);\n    event PolicyProofVerified(address indexed prover, uint indexed policyId);\n    event ProcessProofVerified(address indexed prover, uint indexed processId, uint currentStep, uint previousStep);\n\n    // Constructor with verifier addresses\n    constructor(address _attributeVerifier, address _policyVerifier, address _processVerifier) {\n        attributeVerifier = IVerifier(_attributeVerifier);\n        policyVerifier = IVerifier(_policyVerifier);\n        processVerifier = IVerifier(_processVerifier);\n    }\n\n    // Original MARTSIAEth functions\n    function setAuthoritiesNames(uint64 _instanceID, bytes32 _hash1, bytes32 _hash2) public {\n        authoritiesName[_instanceID][msg.sender].hashPart1 = _hash1;\n        authoritiesName[_instanceID][msg.sender].hashPart2 = _hash2;\n    }\n\n    // ... (keep all other original functions)\n\n    // Modified function to store attribute commitment\n    function setUserAttributes(uint64 _instanceID, bytes32 _hash1, bytes32 _hash2, string memory _gid, uint _authId, uint _attrType, bytes32 _commitment) public {\n        // Original logic to store IPFS hash\n        allUsers[_instanceID].hashPart1 = _hash1;\n        allUsers[_instanceID].hashPart2 = _hash2;\n        \n        // Store the commitment associated with the attribute\n        attributeCommitments[_gid][_authId][_attrType] = _commitment;\n    }\n\n    // Function to retrieve a specific commitment\n    function getAttributeCommitment(string memory _gid, uint _authId, uint _attrType) public view returns (bytes32) {\n        return attributeCommitments[_gid][_authId][_attrType];\n    }\n\n    // Function to retrieve user attributes (IPFS hash) - for compatibility with legacy systems\n    function getUserAttributes(uint64 _instanceID) public view returns (bytes memory) {\n        bytes32 p1 = allUsers[_instanceID].hashPart1;\n        bytes32 p2 = allUsers[_instanceID].hashPart2;\n        bytes memory joined = new bytes(64);\n        assembly {\n            mstore(add(joined, 32), p1)\n            mstore(add(joined, 64), p2)\n        }\n        return joined;\n    }\n\n    // New zkSNARK verification functions\n    function verifyAttributeProof(\n        uint[2] memory a,\n        uint[2][2] memory b,\n        uint[2] memory c,\n        uint[4] memory input // [commitment, current_date, expected_auth_id, expected_attr_type]\n    ) public returns (bool) {\n        uint[] memory inputArray = new uint[](4);\n        for (uint i = 0; i < 4; i++) {\n            inputArray[i] = input[i];\n        }\n        \n        bool success = attributeVerifier.verifyProof(a, b, c, inputArray);\n        require(success, \"Attribute proof verification failed\");\n        \n        emit AttributeProofVerified(msg.sender, input[2], input[3], bytes32(input[0]));\n        return true;\n    }\n\n    function verifyPolicyProof(\n        uint[2] memory a,\n        uint[2][2] memory b,\n        uint[2] memory c,\n        uint[] memory input // [commitment1, commitment2, current_date, policy_id]\n    ) public returns (bool) {\n        bool success = policyVerifier.verifyProof(a, b, c, input);\n        require(success, \"Policy proof verification failed\");\n        \n        emit PolicyProofVerified(msg.sender, input[input.length - 1]);\n        return true;\n    }\n\n    function verifyProcessProof(\n        uint[2] memory a,\n        uint[2][2] memory b,\n        uint[2] memory c,\n        uint[] memory input // [commitment, process_id, current_step, previous_step]\n    ) public returns (bool) {\n        bool success = processVerifier.verifyProof(a, b, c, input);\n        require(success, \"Process proof verification failed\");\n        \n        emit ProcessProofVerified(msg.sender, input[1], input[2], input[3]);\n        return true;\n    }\n}",
  "sourcePath": "/test/blockchain/contracts/MARTZKEth.sol",
  "compiler": {
    "name": "solc",
    "version": "0.8.17+commit.8df45f5f.Emscripten.clang"
  },
  "schemaVersion": "3.4.11",
  "updatedAt": "2025-05-28T18:01:10.238Z",
  "networkType": "ethereum",
  "devdoc": {
    "kind": "dev",
    "methods": {},
    "version": 1
  },
  "userdoc": {
    "kind": "user",
    "methods": {},
    "version": 1
  }
}