{
  "contractName": "Verifier_proof_of_policy",
  "abi": [
    {
      "inputs": [
        {
          "internalType": "uint256[2]",
          "name": "_pA",
          "type": "uint256[2]"
        },
        {
          "internalType": "uint256[2][2]",
          "name": "_pB",
          "type": "uint256[2][2]"
        },
        {
          "internalType": "uint256[2]",
          "name": "_pC",
          "type": "uint256[2]"
        },
        {
          "internalType": "uint256[6]",
          "name": "_pubSignals",
          "type": "uint256[6]"
        }
      ],
      "name": "verifyProof",
      "outputs": [
        {
          "internalType": "bool",
          "name": "",
          "type": "bool"
        }
      ],
      "stateMutability": "view",
      "type": "function",
      "constant": true
    }
  ],
  "bytecode": "0x608060405234801561001057600080fd5b506107d1806100206000396000f3fe608060405234801561001057600080fd5b506004361061002b5760003560e01c8063f398789b14610030575b600080fd5b61004a600480360381019061004591906106fc565b610060565b6040516100579190610780565b60405180910390f35b600061061c565b7f30644e72e131a029b85045b68181585d2833e84879b9709143e1f593f00000018110610098576000805260206000f35b50565b600060405183815284602082015285604082015260408160608360076107d05a03fa9150816100ce576000805260206000f35b825160408201526020830151606082015260408360808360066107d05a03fa9150816100fe576000805260206000f35b505050505050565b600060808601600087017f1211a819c9d01e18d2974a757d1e5e17fe11b7ec1c1291fdf3c627e6375e942b81527f163c38a84c1fdcace243d6c51ed56017ae5c9979e473ad691aa05808d6b7142560208201526101a960008801357f2879b99f47717dbd082ff8f73945998ad3f0c093e491d59c78b2a6774c1555bf7f1f1cdf0e0ee047021984be10cdd204ae9d3e7ea5ec58cc7275eba2d08d09f0a48461009b565b6101f960208801357f198865c330632cf301b2558d1b2edcd8a3d85802b45de341ce80f4b17cc950737f058af17f9b0467ae71f5ed6af466911ea6ef877cc5934c6c2bc6c051cbcfa7588461009b565b61024960408801357f2b19503f2b132124e3d0e6fa2f66b19a46242866849552427152f05810f3f8a57f1d145c48d0d996ecc998a07bd41b53e960f304c5857de06dd9e13f58aa487dae8461009b565b61029960608801357f0f00e84f76eb6fc866547e82015c35caee698e70c16d8e1356de9c991f66e62d7f080008c8d7ed664a78d3da20d3ab57fafe97c4694849ee13b7db8276a54efb578461009b565b6102e960808801357f03e0b22f3d46eff1190c590720aab8a1cc35ffa1f3e951a3f313f07cf07aa85b7f2c825dc559e5228809ab444d1508ea15cb884bf6eb340f695db7b4c3019408d98461009b565b61033960a08801357f2208f21940c28d882ae1060e307cd0f05468372fa4fa7545078f08fbc3ea865b7f12d2e36b087305965ce51b50185610e8a8014144888478cba70c87e66fd5ee588461009b565b833582527f30644e72e131a029b85045b68181585d97816a916871ca8d3c208c16d87cfd4760208501357f30644e72e131a029b85045b68181585d97816a916871ca8d3c208c16d87cfd4703066020830152843560408301526020850135606083015260408501356080830152606085013560a08301527f218d51f62e080a67f9d1fe965ba1e0c8f0928fb28ddb768e8f8d9579118259d160c08301527f1c09b1687ef2061858ef84f0f7e58073b80aabc5500fb3321543d87bdde5df9160e08301527f1090243de075642f8942cf29fbc7fcaa66b847fad500199e0583305f3ec8bf736101008301527f1f2d00907eadb053a9e52c9c42d15cb79dc7fac6e000dac6b2ebb7815e2807bc6101208301527f15cb29bb3f3345b9356506467443dd53749f281d5d7a8f070f29f381882b7eff6101408301527f22669d7e97fdf24ca0b31725b75a8b70bc7769fd1f0ff6de053925e6dc37df31610160830152600088015161018083015260206000018801516101a08301527f198e9393920d483a7260bfb731fb5d25f1aa493335a9e71297e485b7aef312c26101c08301527f1800deef121f1e76426a00665e5c4479674322d4f75edadd46debd5cd992f6ed6101e08301527f090689d0585ff075ec9e99ad690c3395bc4b313370b38ef355acdadcd122975b6102008301527f12c85ea5db8c6deb4aab71808dcb408fe3d1e7690c43d37b4ce6cc0166fa7daa610220830152853561024083015260208601356102608301527f11a1ab387504ec51d10e749e3d52dac8434c9261c8f99f3ea7073b1f7a8ff5536102808301527e41bd318b06d545ca964ff4c37ffd6bf0a7d9b340650bf00ab2b409ff66a3a26102a08301527f0d95f2cedca8289a86780cc0c3d9a3a9d6a944e1b614e42b16cf88c17955f7ee6102c08301527f107923c4417913dd7153ddb5b550f87dafd0fd91ec0318a26dcae9f9ac68ccd36102e08301526020826103008460086107d05a03fa82518116935050505095945050505050565b60405161038081016040526106346000840135610067565b6106416020840135610067565b61064e6040840135610067565b61065b6060840135610067565b6106686080840135610067565b61067560a0840135610067565b610682818486888a610106565b8060005260206000f35b600080fd5b600080fd5b6000819050826020600202820111156106b2576106b1610691565b5b92915050565b6000819050826040600202820111156106d4576106d3610691565b5b92915050565b6000819050826020600602820111156106f6576106f5610691565b5b92915050565b6000806000806101c085870312156107175761071661068c565b5b600061072587828801610696565b9450506040610736878288016106b8565b93505060c061074787828801610696565b925050610100610759878288016106da565b91505092959194509250565b60008115159050919050565b61077a81610765565b82525050565b60006020820190506107956000830184610771565b9291505056fea26469706673582212200db64140a39a6afc603650f5c8d8b12a49324ccae986a4bb852612e1d09bf79864736f6c63430008110033",
  "immutableReferences": {},
  "source": "// SPDX-License-Identifier: GPL-3.0\n/*\n    Copyright 2021 0KIMS association.\n\n    This file is generated with [snarkJS](https://github.com/iden3/snarkjs).\n\n    snarkJS is a free software: you can redistribute it and/or modify it\n    under the terms of the GNU General Public License as published by\n    the Free Software Foundation, either version 3 of the License, or\n    (at your option) any later version.\n\n    snarkJS is distributed in the hope that it will be useful, but WITHOUT\n    ANY WARRANTY; without even the implied warranty of MERCHANTABILITY\n    or FITNESS FOR A PARTICULAR PURPOSE. See the GNU General Public\n    License for more details.\n\n    You should have received a copy of the GNU General Public License\n    along with snarkJS. If not, see <https://www.gnu.org/licenses/>.\n*/\n\npragma solidity >=0.7.0 <0.9.0;\n\ncontract Verifier_proof_of_policy {\n    // Scalar field size\n    uint256 constant r    = 21888242871839275222246405745257275088548364400416034343698204186575808495617;\n    // Base field size\n    uint256 constant q   = 21888242871839275222246405745257275088696311157297823662689037894645226208583;\n\n    // Verification Key data\n    uint256 constant alphax  = 15176015117830186309430883982353997735683224140062800795621805078697572719057;\n    uint256 constant alphay  = 12681885810221211217291781565618973132631269639389448272586825424218706272145;\n    uint256 constant betax1  = 7491681685723826048170848367255007215334179957128911863221991482527574441843;\n    uint256 constant betax2  = 14101210319569405572699827565783445044262942452492449747216022853285898094524;\n    uint256 constant betay1  = 9857527794164617944553198684829557924964140541048333290953802034676773912319;\n    uint256 constant betay2  = 15559942239574802151015245253766840414922210971782845415959507262322461105969;\n    uint256 constant gammax1 = 11559732032986387107991004021392285783925812861821192530917403151452391805634;\n    uint256 constant gammax2 = 10857046999023057135944570762232829481370756359578518086990519993285655852781;\n    uint256 constant gammay1 = 4082367875863433681332203403145435568316851327593401208105741076214120093531;\n    uint256 constant gammay2 = 8495653923123431417604973247489272438418190587263600148770280649306958101930;\n    uint256 constant deltax1 = 7974962524050726406981148857456586516933747570426527386819253356531429668179;\n    uint256 constant deltax2 = 116150824948744603016389760679291627971886936606098597038831096118299239330;\n    uint256 constant deltay1 = 6145003043837259669412160586511651596945241170011238007690191656477720442862;\n    uint256 constant deltay2 = 7451040924337238542267018301221899735355560601553293691043414106495840210131;\n\n    \n    uint256 constant IC0x = 8172827863238340244121177308431743024254697750466739342141574898775920383019;\n    uint256 constant IC0y = 10057284527801865395576533780699676315834413701511991223837456955525110895653;\n    \n    uint256 constant IC1x = 14072709492336274880985782799583749494990591216049915979125409396328160161956;\n    uint256 constant IC1y = 18307583555398376636105347159213410991757007297277879832714873116298709390783;\n    \n    uint256 constant IC2x = 2507055898963769556165394436824297002221013404860224600892363713006965598040;\n    uint256 constant IC2y = 11548814754057934388009438190893231885261323242660590906936161628217452089459;\n    \n    uint256 constant IC3x = 13153046473984825532472918880992156030881008116076653794124766980697844383150;\n    uint256 constant IC3y = 19494177508420595532798213612816457284866027868784757872443511389268332509349;\n    \n    uint256 constant IC4x = 3618563417366042090534653961511474639819181527342660532183740188868075256663;\n    uint256 constant IC4y = 6786296076260941378983845411977185353635118021115119370525593127535115691565;\n    \n    uint256 constant IC5x = 20132102639071710586605015643901914750954349314899512630382480191930015942873;\n    uint256 constant IC5y = 1753942072680611024504251375079116114581157348139657296221617353577725601883;\n    \n    uint256 constant IC6x = 8514238740127086110935234345321139242795959749914502940369537652885676224088;\n    uint256 constant IC6y = 15394442531783895345351446863604716189297217451392410665848592495832868750939;\n    \n \n    // Memory data\n    uint16 constant pVk = 0;\n    uint16 constant pPairing = 128;\n\n    uint16 constant pLastMem = 896;\n\n    function verifyProof(uint[2] calldata _pA, uint[2][2] calldata _pB, uint[2] calldata _pC, uint[6] calldata _pubSignals) public view returns (bool) {\n        assembly {\n            function checkField(v) {\n                if iszero(lt(v, r)) {\n                    mstore(0, 0)\n                    return(0, 0x20)\n                }\n            }\n            \n            // G1 function to multiply a G1 value(x,y) to value in an address\n            function g1_mulAccC(pR, x, y, s) {\n                let success\n                let mIn := mload(0x40)\n                mstore(mIn, x)\n                mstore(add(mIn, 32), y)\n                mstore(add(mIn, 64), s)\n\n                success := staticcall(sub(gas(), 2000), 7, mIn, 96, mIn, 64)\n\n                if iszero(success) {\n                    mstore(0, 0)\n                    return(0, 0x20)\n                }\n\n                mstore(add(mIn, 64), mload(pR))\n                mstore(add(mIn, 96), mload(add(pR, 32)))\n\n                success := staticcall(sub(gas(), 2000), 6, mIn, 128, pR, 64)\n\n                if iszero(success) {\n                    mstore(0, 0)\n                    return(0, 0x20)\n                }\n            }\n\n            function checkPairing(pA, pB, pC, pubSignals, pMem) -> isOk {\n                let _pPairing := add(pMem, pPairing)\n                let _pVk := add(pMem, pVk)\n\n                mstore(_pVk, IC0x)\n                mstore(add(_pVk, 32), IC0y)\n\n                // Compute the linear combination vk_x\n                \n                g1_mulAccC(_pVk, IC1x, IC1y, calldataload(add(pubSignals, 0)))\n                \n                g1_mulAccC(_pVk, IC2x, IC2y, calldataload(add(pubSignals, 32)))\n                \n                g1_mulAccC(_pVk, IC3x, IC3y, calldataload(add(pubSignals, 64)))\n                \n                g1_mulAccC(_pVk, IC4x, IC4y, calldataload(add(pubSignals, 96)))\n                \n                g1_mulAccC(_pVk, IC5x, IC5y, calldataload(add(pubSignals, 128)))\n                \n                g1_mulAccC(_pVk, IC6x, IC6y, calldataload(add(pubSignals, 160)))\n                \n\n                // -A\n                mstore(_pPairing, calldataload(pA))\n                mstore(add(_pPairing, 32), mod(sub(q, calldataload(add(pA, 32))), q))\n\n                // B\n                mstore(add(_pPairing, 64), calldataload(pB))\n                mstore(add(_pPairing, 96), calldataload(add(pB, 32)))\n                mstore(add(_pPairing, 128), calldataload(add(pB, 64)))\n                mstore(add(_pPairing, 160), calldataload(add(pB, 96)))\n\n                // alpha1\n                mstore(add(_pPairing, 192), alphax)\n                mstore(add(_pPairing, 224), alphay)\n\n                // beta2\n                mstore(add(_pPairing, 256), betax1)\n                mstore(add(_pPairing, 288), betax2)\n                mstore(add(_pPairing, 320), betay1)\n                mstore(add(_pPairing, 352), betay2)\n\n                // vk_x\n                mstore(add(_pPairing, 384), mload(add(pMem, pVk)))\n                mstore(add(_pPairing, 416), mload(add(pMem, add(pVk, 32))))\n\n\n                // gamma2\n                mstore(add(_pPairing, 448), gammax1)\n                mstore(add(_pPairing, 480), gammax2)\n                mstore(add(_pPairing, 512), gammay1)\n                mstore(add(_pPairing, 544), gammay2)\n\n                // C\n                mstore(add(_pPairing, 576), calldataload(pC))\n                mstore(add(_pPairing, 608), calldataload(add(pC, 32)))\n\n                // delta2\n                mstore(add(_pPairing, 640), deltax1)\n                mstore(add(_pPairing, 672), deltax2)\n                mstore(add(_pPairing, 704), deltay1)\n                mstore(add(_pPairing, 736), deltay2)\n\n\n                let success := staticcall(sub(gas(), 2000), 8, _pPairing, 768, _pPairing, 0x20)\n\n                isOk := and(success, mload(_pPairing))\n            }\n\n            let pMem := mload(0x40)\n            mstore(0x40, add(pMem, pLastMem))\n\n            // Validate that all evaluations  F\n            \n            checkField(calldataload(add(_pubSignals, 0)))\n            \n            checkField(calldataload(add(_pubSignals, 32)))\n            \n            checkField(calldataload(add(_pubSignals, 64)))\n            \n            checkField(calldataload(add(_pubSignals, 96)))\n            \n            checkField(calldataload(add(_pubSignals, 128)))\n            \n            checkField(calldataload(add(_pubSignals, 160)))\n            \n\n            // Validate all evaluations\n            let isValid := checkPairing(_pA, _pB, _pC, _pubSignals, pMem)\n\n            mstore(0, isValid)\n             return(0, 0x20)\n         }\n     }\n }\n",
  "sourcePath": "/test/blockchain/contracts/verifiers/Verifier_proof_of_policy.sol",
  "compiler": {
    "name": "solc",
    "version": "0.8.17+commit.8df45f5f.Emscripten.clang"
  },
  "schemaVersion": "3.4.11",
  "updatedAt": "2025-05-28T18:01:10.223Z",
  "networkType": "ethereum",
  "devdoc": {
    "kind": "dev",
    "methods": {},
    "version": 1
  },
  "userdoc": {
    "kind": "user",
    "methods": {},
    "version": 1
  }
}