{
  "contractName": "Verifier_proof_of_attribute",
  "abi": [
    {
      "inputs": [
        {
          "internalType": "uint256[2]",
          "name": "_pA",
          "type": "uint256[2]"
        },
        {
          "internalType": "uint256[2][2]",
          "name": "_pB",
          "type": "uint256[2][2]"
        },
        {
          "internalType": "uint256[2]",
          "name": "_pC",
          "type": "uint256[2]"
        },
        {
          "internalType": "uint256[5]",
          "name": "_pubSignals",
          "type": "uint256[5]"
        }
      ],
      "name": "verifyProof",
      "outputs": [
        {
          "internalType": "bool",
          "name": "",
          "type": "bool"
        }
      ],
      "stateMutability": "view",
      "type": "function",
      "constant": true
    }
  ],
  "bytecode": "0x608060405234801561001057600080fd5b50610775806100206000396000f3fe608060405234801561001057600080fd5b506004361061002b5760003560e01c806334baeab914610030575b600080fd5b61004a600480360381019061004591906106a0565b610060565b6040516100579190610724565b60405180910390f35b60006105cd565b7f30644e72e131a029b85045b68181585d2833e84879b9709143e1f593f00000018110610098576000805260206000f35b50565b600060405183815284602082015285604082015260408160608360076107d05a03fa9150816100ce576000805260206000f35b825160408201526020830151606082015260408360808360066107d05a03fa9150816100fe576000805260206000f35b505050505050565b600060808601600087017f0847b7bed53f0b0904ab344c9eda3b372e2c6d27c364679fcec99c52c493a55e81527f0f746a75938cfd4d0af3275214d8edb518fdeb1ef9ee821f7d78e6bff70b231c60208201526101a960008801357f2c87c187fa01427dbf7a5f482bad38f97307ca099351646e09b73bd2e252e6077f031bac5df5e793f0473a186275c8920edda8ef44adaa1b7e4a43e456f9f4060b8461009b565b6101f960208801357f23148a68f076296d00611583e7bf5cdce8b7dd2166cec0a97bf1537fb74860a67f014e21ebe0ad937c7ecd9a33a5db8f2df3304b7c0cdf76665de42025a1e7545b8461009b565b61024960408801357f0a24af318e940acc533be0ef30fa925c51292c1dd9e45efec8d9352ca36daacc7f1eded8527b663b2b44128ebbab5a603ef20b39f61bea6e78443898665d6630ba8461009b565b61029960608801357f116543d5edb83fbd5ff76ca21f80a4c50f27d3f1d4be95ee361d685d0903866b7f207132e726948376e5ad1045ec1c8293a5caf05269e426db24ad5a127641c5628461009b565b6102e960808801357f19cf998fbc5867aef46d8923caf37b2050c6a004d1211f733447d9acc04ff77e7f2c8e4286d67a95f8d9e5586d7d7411af03fdab4e1b780ccb6e45e3a5eb3ae7d78461009b565b833582527f30644e72e131a029b85045b68181585d97816a916871ca8d3c208c16d87cfd4760208501357f30644e72e131a029b85045b68181585d97816a916871ca8d3c208c16d87cfd4703066020830152843560408301526020850135606083015260408501356080830152606085013560a08301527f218d51f62e080a67f9d1fe965ba1e0c8f0928fb28ddb768e8f8d9579118259d160c08301527f1c09b1687ef2061858ef84f0f7e58073b80aabc5500fb3321543d87bdde5df9160e08301527f1090243de075642f8942cf29fbc7fcaa66b847fad500199e0583305f3ec8bf736101008301527f1f2d00907eadb053a9e52c9c42d15cb79dc7fac6e000dac6b2ebb7815e2807bc6101208301527f15cb29bb3f3345b9356506467443dd53749f281d5d7a8f070f29f381882b7eff6101408301527f22669d7e97fdf24ca0b31725b75a8b70bc7769fd1f0ff6de053925e6dc37df31610160830152600088015161018083015260206000018801516101a08301527f198e9393920d483a7260bfb731fb5d25f1aa493335a9e71297e485b7aef312c26101c08301527f1800deef121f1e76426a00665e5c4479674322d4f75edadd46debd5cd992f6ed6101e08301527f090689d0585ff075ec9e99ad690c3395bc4b313370b38ef355acdadcd122975b6102008301527f12c85ea5db8c6deb4aab71808dcb408fe3d1e7690c43d37b4ce6cc0166fa7daa610220830152853561024083015260208601356102608301527f1a0aa9af4327c46f5fb51289941176576334e552760b7ac68aa081f7f048ffc36102808301527f175be536b60c818eb4e68917309bb24aefc30c017fe5832d7c9db65c4c384c6c6102a08301527f14c0ba785f7a1fa6f0c62029e6f716c63277bc29f853e24bececfa73e2aa15ca6102c08301527f2364b3349f78886579cab2b58dc608bd8fea93effcd946ae8d8d47e544f374006102e08301526020826103008460086107d05a03fa82518116935050505095945050505050565b60405161038081016040526105e56000840135610067565b6105f26020840135610067565b6105ff6040840135610067565b61060c6060840135610067565b6106196080840135610067565b610626818486888a610106565b8060005260206000f35b600080fd5b600080fd5b60008190508260206002028201111561065657610655610635565b5b92915050565b60008190508260406002028201111561067857610677610635565b5b92915050565b60008190508260206005028201111561069a57610699610635565b5b92915050565b6000806000806101a085870312156106bb576106ba610630565b5b60006106c98782880161063a565b94505060406106da8782880161065c565b93505060c06106eb8782880161063a565b9250506101006106fd8782880161067e565b91505092959194509250565b60008115159050919050565b61071e81610709565b82525050565b60006020820190506107396000830184610715565b9291505056fea264697066735822122021dce17d5dd19519c8d91d72c1a11ad7371d94397aabe7d1e42cceb666bb66b264736f6c63430008110033",
  "immutableReferences": {},
  "source": "// SPDX-License-Identifier: GPL-3.0\n/*\n    Copyright 2021 0KIMS association.\n\n    This file is generated with [snarkJS](https://github.com/iden3/snarkjs).\n\n    snarkJS is a free software: you can redistribute it and/or modify it\n    under the terms of the GNU General Public License as published by\n    the Free Software Foundation, either version 3 of the License, or\n    (at your option) any later version.\n\n    snarkJS is distributed in the hope that it will be useful, but WITHOUT\n    ANY WARRANTY; without even the implied warranty of MERCHANTABILITY\n    or FITNESS FOR A PARTICULAR PURPOSE. See the GNU General Public\n    License for more details.\n\n    You should have received a copy of the GNU General Public License\n    along with snarkJS. If not, see <https://www.gnu.org/licenses/>.\n*/\n\npragma solidity >=0.7.0 <0.9.0;\n\ncontract Verifier_proof_of_attribute {\n    // Scalar field size\n    uint256 constant r    = 21888242871839275222246405745257275088548364400416034343698204186575808495617;\n    // Base field size\n    uint256 constant q   = 21888242871839275222246405745257275088696311157297823662689037894645226208583;\n\n    // Verification Key data\n    uint256 constant alphax  = 15176015117830186309430883982353997735683224140062800795621805078697572719057;\n    uint256 constant alphay  = 12681885810221211217291781565618973132631269639389448272586825424218706272145;\n    uint256 constant betax1  = 7491681685723826048170848367255007215334179957128911863221991482527574441843;\n    uint256 constant betax2  = 14101210319569405572699827565783445044262942452492449747216022853285898094524;\n    uint256 constant betay1  = 9857527794164617944553198684829557924964140541048333290953802034676773912319;\n    uint256 constant betay2  = 15559942239574802151015245253766840414922210971782845415959507262322461105969;\n    uint256 constant gammax1 = 11559732032986387107991004021392285783925812861821192530917403151452391805634;\n    uint256 constant gammax2 = 10857046999023057135944570762232829481370756359578518086990519993285655852781;\n    uint256 constant gammay1 = 4082367875863433681332203403145435568316851327593401208105741076214120093531;\n    uint256 constant gammay2 = 8495653923123431417604973247489272438418190587263600148770280649306958101930;\n    uint256 constant deltax1 = 11778973654008267167833218851700535310207108277932759568993607319858172198851;\n    uint256 constant deltax2 = 10565560575232476759961602732626118164229555555436556917713076197861302488172;\n    uint256 constant deltay1 = 9386778578171787122180963715158851794056793394889602850395900703384114173386;\n    uint256 constant deltay2 = 16008871238199702921343744850048403133147958995259248409562165987745738224640;\n\n    \n    uint256 constant IC0x = 3745217094694178381289039008522774984660395430018128975889074192404427547998;\n    uint256 constant IC0y = 6990381743228714837932517552644598878120364743704094806804819601481450332956;\n    \n    uint256 constant IC1x = 1405833050042280639124873503554522805476380294495811600195753507471372846603;\n    uint256 constant IC1y = 20141625394375124757589647692162857411973038618536861674215591588891704092167;\n    \n    uint256 constant IC2x = 590361036514249642309435503342884968010863354144753843506904271335622923355;\n    uint256 constant IC2y = 15867241911863760714695119163872430897579168739595991143943499494159016288422;\n    \n    uint256 constant IC3x = 13963118506800793762871109149536570534923986299554493814951171158362869346490;\n    uint256 constant IC3y = 4587944121828007196148482389843224531016621425330477480389058001710378494668;\n    \n    uint256 constant IC4x = 14674016192112463504415950329249088569281586798800776011351240541751625237858;\n    uint256 constant IC4y = 7868238163966829251401394959909576857987347527456767075973961955195037648491;\n    \n    uint256 constant IC5x = 20153116771341252540524945620872515887254044314087806460830248778090489243607;\n    uint256 constant IC5y = 11674618399289296171135247035364587408327307064573025385101929542187844892542;\n    \n \n    // Memory data\n    uint16 constant pVk = 0;\n    uint16 constant pPairing = 128;\n\n    uint16 constant pLastMem = 896;\n\n    function verifyProof(uint[2] calldata _pA, uint[2][2] calldata _pB, uint[2] calldata _pC, uint[5] calldata _pubSignals) public view returns (bool) {\n        assembly {\n            function checkField(v) {\n                if iszero(lt(v, r)) {\n                    mstore(0, 0)\n                    return(0, 0x20)\n                }\n            }\n            \n            // G1 function to multiply a G1 value(x,y) to value in an address\n            function g1_mulAccC(pR, x, y, s) {\n                let success\n                let mIn := mload(0x40)\n                mstore(mIn, x)\n                mstore(add(mIn, 32), y)\n                mstore(add(mIn, 64), s)\n\n                success := staticcall(sub(gas(), 2000), 7, mIn, 96, mIn, 64)\n\n                if iszero(success) {\n                    mstore(0, 0)\n                    return(0, 0x20)\n                }\n\n                mstore(add(mIn, 64), mload(pR))\n                mstore(add(mIn, 96), mload(add(pR, 32)))\n\n                success := staticcall(sub(gas(), 2000), 6, mIn, 128, pR, 64)\n\n                if iszero(success) {\n                    mstore(0, 0)\n                    return(0, 0x20)\n                }\n            }\n\n            function checkPairing(pA, pB, pC, pubSignals, pMem) -> isOk {\n                let _pPairing := add(pMem, pPairing)\n                let _pVk := add(pMem, pVk)\n\n                mstore(_pVk, IC0x)\n                mstore(add(_pVk, 32), IC0y)\n\n                // Compute the linear combination vk_x\n                \n                g1_mulAccC(_pVk, IC1x, IC1y, calldataload(add(pubSignals, 0)))\n                \n                g1_mulAccC(_pVk, IC2x, IC2y, calldataload(add(pubSignals, 32)))\n                \n                g1_mulAccC(_pVk, IC3x, IC3y, calldataload(add(pubSignals, 64)))\n                \n                g1_mulAccC(_pVk, IC4x, IC4y, calldataload(add(pubSignals, 96)))\n                \n                g1_mulAccC(_pVk, IC5x, IC5y, calldataload(add(pubSignals, 128)))\n                \n\n                // -A\n                mstore(_pPairing, calldataload(pA))\n                mstore(add(_pPairing, 32), mod(sub(q, calldataload(add(pA, 32))), q))\n\n                // B\n                mstore(add(_pPairing, 64), calldataload(pB))\n                mstore(add(_pPairing, 96), calldataload(add(pB, 32)))\n                mstore(add(_pPairing, 128), calldataload(add(pB, 64)))\n                mstore(add(_pPairing, 160), calldataload(add(pB, 96)))\n                // alpha1\n                mstore(add(_pPairing, 192), alphax)\n                mstore(add(_pPairing, 224), alphay)\n\n                // beta2\n                mstore(add(_pPairing, 256), betax1)\n                mstore(add(_pPairing, 288), betax2)\n                mstore(add(_pPairing, 320), betay1)\n                mstore(add(_pPairing, 352), betay2)\n                // vk_x\n                mstore(add(_pPairing, 384), mload(add(pMem, pVk)))\n                mstore(add(_pPairing, 416), mload(add(pMem, add(pVk, 32))))\n                // gamma2\n                mstore(add(_pPairing, 448), gammax1)\n                mstore(add(_pPairing, 480), gammax2)\n                mstore(add(_pPairing, 512), gammay1)\n                mstore(add(_pPairing, 544), gammay2)\n\n                // C\n                mstore(add(_pPairing, 576), calldataload(pC))\n                mstore(add(_pPairing, 608), calldataload(add(pC, 32)))\n\n                // delta2\n                mstore(add(_pPairing, 640), deltax1)\n                mstore(add(_pPairing, 672), deltax2)\n                mstore(add(_pPairing, 704), deltay1)\n                mstore(add(_pPairing, 736), deltay2)\n\n\n                let success := staticcall(sub(gas(), 2000), 8, _pPairing, 768, _pPairing, 0x20)\n\n                isOk := and(success, mload(_pPairing))\n            }\n\n            let pMem := mload(0x40)\n            mstore(0x40, add(pMem, pLastMem))\n\n            // Validate that all evaluations  F\n            \n            checkField(calldataload(add(_pubSignals, 0)))\n            \n            checkField(calldataload(add(_pubSignals, 32)))\n            \n            checkField(calldataload(add(_pubSignals, 64)))\n            \n            checkField(calldataload(add(_pubSignals, 96)))\n            \n            checkField(calldataload(add(_pubSignals, 128)))\n            \n\n            // Validate all evaluations\n            let isValid := checkPairing(_pA, _pB, _pC, _pubSignals, pMem)\n\n            mstore(0, isValid)\n             return(0, 0x20)\n         }\n     }\n }\n",
  "sourcePath": "/test/blockchain/contracts/verifiers/Verifier_proof_of_attribute.sol",
  "compiler": {
    "name": "solc",
    "version": "0.8.17+commit.8df45f5f.Emscripten.clang"
  },
  "schemaVersion": "3.4.11",
  "updatedAt": "2025-05-28T18:01:10.220Z",
  "networkType": "ethereum",
  "devdoc": {
    "kind": "dev",
    "methods": {},
    "version": 1
  },
  "userdoc": {
    "kind": "user",
    "methods": {},
    "version": 1
  }
}